:020000040800F2
:10000000000001206D1000088134000883340008CE
:100010008534000887340008893400080000000097
:100020000000000000000000000000008B34000809
:1000300000000000000000008D3400088F3400082C
:10004000B5100008B5100008B5100008B51000087C
:10005000B5410008B5100008B5100008B51000083B
:10006000B5100008B5100008B5100008B51000085C
:10007000B5100008B5100008B5100008B51000084C
:10008000B5100008B5100008B5100008B51000083C
:10009000B510000893340008E5420008B5100008C8
:1000A000B5100008B5100008B51000086D41000833
:1000B000B5100008C5430008B5100008B5100008C9
:1000C0000D3E0008B510000891340008B510000876
:0400D000B51000085F
:1001000010B5054C237833B9044B13B10448AFF351
:1001100000800123237010BD980A00200000000019
:100120000C45010808B5034B1BB103490348AFF365
:10013000008008BD000000009C0A00200C4501085A
:1001400081F0004102E000BF83F0004330B54FEA88
:1001500041044FEA430594EA050F08BF90EA020FF5
:100160001FBF54EA000C55EA020C7FEA645C7FEA88
:10017000655C00F0E2804FEA5454D4EB5555B8BFAB
:100180006D420CDD2C4480EA020281EA030382EA1C
:10019000000083EA010180EA020281EA0303362DAE
:1001A00088BF30BD11F0004F4FEA01314FF4801C81
:1001B0004CEA113102D0404261EB410113F0004F93
:1001C0004FEA03334CEA133302D0524263EB43034A
:1001D00094EA050F00F0A780A4F10104D5F1200EE8
:1001E0000DDB02FA0EFC22FA05F2801841F1000143
:1001F00003FA0EF2801843FA05F359410EE0A5F117
:1002000020050EF1200E012A03FA0EFC28BF4CF047
:10021000020C43FA05F3C01851EBE37101F00045FD
:1002200007D54FF0000EDCF1000C7EEB00006EEB0A
:100230000101B1F5801F1BD3B1F5001F0CD3490894
:100240005FEA30004FEA3C0C04F101044FEA4452EB
:1002500012F5800F80F09A80BCF1004F08BF5FEA72
:10026000500C50F1000041EB045141EA050130BD52
:100270005FEA4C0C404141EB0101013C28BFB1F564
:10028000801FE9D291F0000F04BF01460020B1FAAF
:1002900081F308BF2033A3F10B03B3F120020CDA82
:1002A0000C3208DD02F1140CC2F10C0201FA0CF060
:1002B00021FA02F10CE002F11402D8BFC2F1200CC5
:1002C00001FA02F120FA0CFCDCBF41EA0C0190407B
:1002D000E41AA2BF01EB0451294330BD6FEA0404C4
:1002E0001F3C1CDA0C340EDC04F11404C4F12002AF
:1002F00020FA04F001FA02F340EA030021FA04F3C1
:1003000045EA030130BDC4F10C04C4F1200220FA17
:1003100002F001FA04F340EA0300294630BD21FA55
:1003200004F0294630BD94F0000F83F4801306BF1B
:1003300081F480110134013D4EE77FEA645C18BF0F
:100340007FEA655C29D094EA050F08BF90EA020FA6
:1003500005D054EA000C04BF1946104630BD91EA9E
:10036000030F1EBF0021002030BD5FEA545C05D1A1
:100370004000494128BF41F0004130BD14F58004E0
:100380003CBF01F5801130BD01F0004545F0FE4154
:1003900041F470014FF0000030BD7FEA645C1ABF89
:1003A000194610467FEA655C1CBF0B46024650EAC0
:1003B000013406BF52EA033591EA030F41F40021EC
:1003C00030BD00BF90F0000F04BF0021704730B572
:1003D0004FF4806404F132044FF000054FF0000147
:1003E00050E700BF90F0000F04BF0021704730B508
:1003F0004FF4806404F1320410F0004548BF4042DD
:100400004FF000013EE700BF42004FEAE2014FEA31
:1004100031014FEA02701FBF12F07F4393F07F4F0C
:1004200081F06051704732F07F4208BF704793F00F
:100430007F4F04BF41F40021704730B54FF4607422
:1004400001F0004521F000411CE700BF50EA010225
:1004500008BF704730B54FF000050AE050EA0102CE
:1004600008BF704730B511F0004502D5404261EB3E
:1004700041014FF4806404F132045FEA915C3FF47F
:10048000D8AE4FF003025FEADC0C18BF03325FEA1C
:10049000DC0C18BF033202EBDC02C2F1200300FACD
:1004A00003FC20FA02F001FA03FE40EA0E0021FAF2
:1004B00002F11444BDE600BF70B54FF0FF0C4CF4E0
:1004C000E06C1CEA11541DBF1CEA135594EA0C0F92
:1004D00095EA0C0F00F0DEF82C4481EA030621EACD
:1004E0004C5123EA4C5350EA013518BF52EA033508
:1004F00041F4801143F4801338D0A0FB02CE4FF0BA
:100500000005E1FB02E506F00042E0FB03E54FF0E9
:100510000006E1FB03569CF0000F18BF4EF0010EE1
:10052000A4F1FF04B6F5007F64F5407404D25FEADD
:100530004E0E6D4146EB060642EAC62141EA555190
:100540004FEAC52040EA5E504FEACE2EB4F1FD0CD2
:1005500088BFBCF5E06F1ED8BEF1004F08BF5FEA50
:10056000500E50F1000041EB045170BD06F0004602
:1005700046EA010140EA020081EA0301B4EB5C04AF
:10058000C2BFD4EB0C0541EA045170BD41F48011A7
:100590004FF0000E013C00F3AB8014F1360FDEBFCC
:1005A000002001F0004170BDC4F10004203C35DAA8
:1005B0000C341BDC04F11404C4F1200500FA05F32B
:1005C00020FA04F001FA05F240EA020001F00042CC
:1005D00021F0004110EBD37021FA04F642EB060142
:1005E0005EEA430E08BF20EAD37070BDC4F10C046C
:1005F000C4F1200500FA04F320FA05F001FA04F230
:1006000040EA020001F0004110EBD37041F100011B
:100610005EEA430E08BF20EAD37070BDC4F1200526
:1006200000FA05F24EEA020E20FA04F301FA05F28E
:1006300043EA020321FA04F001F0004121FA04F236
:1006400020EA020000EBD3705EEA430E08BF20EA06
:10065000D37070BD94F0000F0FD101F00046400040
:1006600041EB010111F4801F08BF013CF7D041EAC2
:10067000060195F0000F18BF704703F000465200C6
:1006800043EB030313F4801F08BF013DF7D043EA97
:100690000603704794EA0C0F0CEA135518BF95EA4D
:1006A0000C0F0CD050EA410618BF52EA4306D1D1D4
:1006B00081EA030101F000414FF0000070BD50EAF3
:1006C000410606BF1046194652EA430619D094EA7D
:1006D0000C0F02D150EA013613D195EA0C0F05D167
:1006E00052EA03361CBF104619460AD181EA0301BB
:1006F00001F0004141F0FE4141F470014FF0000073
:1007000070BD41F0FE4141F4780170BD70B54FF00D
:10071000FF0C4CF4E06C1CEA11541DBF1CEA13558D
:1007200094EA0C0F95EA0C0F00F0A7F8A4EB05046F
:1007300081EA030E52EA03354FEA013100F0888066
:100740004FEA03334FF0805545EA131343EA12632F
:100750004FEA022245EA111545EA10654FEA0026E4
:100760000EF000419D4208BF964244F1FD0404F59D
:10077000407402D25B084FEA3202B61A65EB0305F9
:100780005B084FEA32024FF480104FF4002CB6EBB6
:10079000020E75EB030E22BFB61A754640EA0C0036
:1007A0005B084FEA3202B6EB020E75EB030E22BF76
:1007B000B61A754640EA5C005B084FEA3202B6EBB7
:1007C000020E75EB030E22BFB61A754640EA9C0076
:1007D0005B084FEA3202B6EB020E75EB030E22BF46
:1007E000B61A754640EADC0055EA060E18D04FEA04
:1007F000051545EA16754FEA06164FEAC30343EAA4
:1008000052734FEAC2025FEA1C1CC0D111F4801F70
:100810000BD141EA00014FF000004FF0004CB6E769
:1008200011F4801F04BF01430020B4F1FD0C88BF08
:10083000BCF5E06F3FF6AFAEB5EB030C04BFB6EB13
:10084000020C5FEA500C50F1000041EB045170BD06
:100850000EF0004E4EEA113114EB5C04C2BFD4EB33
:100860000C0541EA045170BD41F480114FF0000EB7
:10087000013C90E645EA060E8DE60CEA135594EA33
:100880000C0F08BF95EA0C0F3FF43BAF94EA0C0F36
:100890000AD150EA01347FF434AF95EA0C0F7FF4AB
:1008A00025AF104619462CE795EA0C0F06D152EAFF
:1008B00003353FF4FDAE1046194622E750EA4106E3
:1008C00018BF52EA43067FF4C5AE50EA41047FF4F4
:1008D0000DAF52EA43057FF4EBAE12E74FF0FF3C59
:1008E00006E000BF4FF0010C02E000BF4FF0010C2A
:1008F0004DF804CD4FEA410C7FEA6C5C4FEA430CA3
:1009000018BF7FEA6C5C1BD001B050EA410C0CBFF1
:1009100052EA430C91EA030F02BF90EA020F002053
:10092000704710F1000F91EA030F58BF994208BFBA
:1009300090422CBFD8176FEAE37040F00100704777
:100940004FEA410C7FEA6C5C02D150EA013C07D1CE
:100950004FEA430C7FEA6C5CD6D152EA033CD3D019
:100960005DF8040B704700BF8446104662468C4613
:100970001946634600E000BF01B5FFF7B7FF002846
:1009800048BF10F1000F01BD4DF808EDFFF7F4FF6F
:100990000CBF012000205DF808FB00BF4DF808EDFA
:1009A000FFF7EAFF34BF012000205DF808FB00BF1D
:1009B0004DF808EDFFF7E0FF94BF012000205DF83F
:1009C00008FB00BF4DF808EDFFF7CEFF94BF0120F4
:1009D00000205DF808FB00BF4DF808EDFFF7C4FFED
:1009E00034BF012000205DF808FB00BF4FEA410240
:1009F00012F5001215D211D56FF47873B3EB625271
:100A000012D94FEAC12343F0004343EA505311F097
:100A1000004F23FA02F018BF404270474FF0000029
:100A2000704750EA013005D111F0004008BF6FF067
:100A3000004070474FF00000704700BF4A0011D2DD
:100A400012F5001211D20DD56FF47873B3EB625228
:100A50000ED44FEAC12343F0004343EA505323FA34
:100A600002F070474FF00000704750EA013002D1A9
:100A70004FF0FF3070474FF00000704753B94AB94C
:100A8000002908BF00281CBF4FF0FF314FF0FF3096
:100A900000F074B9ADF1080C6DE904CE00F006F871
:100AA000DDF804E0DDE9022304B070472DE9F047EA
:100AB000089E0D4604468846002B4DD18A42944636
:100AC00068D9B2FA82F252B101FA02F3C2F12001FE
:100AD00020FA01F10CFA02FC41EA030894404FEAC3
:100AE0001C45210CB8FBF5FE1FFA8CF705FB1E8395
:100AF00041EA03430EFB07F199420BD91CEB0303B8
:100B00000EF1FF3080F01E81994240F21B81AEF160
:100B1000020E63445B1AA4B2B3FBF5F005FB10337D
:100B200044EA034400FB07F7A7420AD91CEB04047C
:100B300000F1FF3380F00881A74240F20581644450
:100B40000238E41B40EA0E4000211EB1D4400023CD
:100B5000C6E90043BDE8F0878B4208D9002E00F0BB
:100B6000EE800021C6E900050846BDE8F087B3FA2B
:100B700083F100294AD1AB4202D3824200F2F980CC
:100B8000841A65EB030301209846002EE2D0C6E9E3
:100B90000048DFE702B9FFDEB2FA82F2002A40F035
:100BA0009180A1EB0C054FEA1C471FFA8CFE012136
:100BB000B5FBF7F307FB1350250C45EA00450EFB88
:100BC00003F0A84208D91CEB050503F1FF3802D257
:100BD000A84200F2CB8043462D1AA4B2B5FBF7F031
:100BE00007FB105544EA05440EFB00FEA64508D954
:100BF0001CEB040400F1FF3502D2A64500F2BB80D5
:100C00002846A4EB0E0440EA03409EE7C1F120070A
:100C10008B4022FA07FC4CEA030C20FA07F405FA91
:100C200001F31C43FD404FEA1C4900FA01F3B5FBF8
:100C3000F9F8200C1FFA8CFE09FB185540EA05450F
:100C400008FB0EF0A84202FA01F20BD91CEB0505D5
:100C500008F1FF3A80F08880A84240F28580A8F130
:100C6000020865442D1AA4B2B5FBF9F009FB105532
:100C700044EA054500FB0EFEAE4508D91CEB050510
:100C800000F1FF346CD2AE456AD90238654440EABF
:100C90000840A0FB0294A5EB0E05A542C846A64657
:100CA00056D353D05EB1B3EB080265EB0E0505FADF
:100CB00007F722FA01F3CD401F43C6E90075002172
:100CC000BDE8F087C2F1200320FA03F10CFA02FC20
:100CD00025FA03F395400D434FEA1C471FFA8CFE9B
:100CE000B3FBF7F107FB11302B0C43EA004301FB88
:100CF0000EF0984204FA02F408D91CEB030301F148
:100D0000FF382FD298422DD9023963441B1AADB255
:100D1000B3FBF7F007FB103345EA034500FB0EF386
:100D2000AB4208D91CEB050500F1FF3816D2AB42E7
:100D300014D902386544ED1A40EA014138E73146DA
:100D4000304607E78646E5E61846FAE64B45A9D25F
:100D5000B9EB020864EB0C0E0138A3E74046EAE762
:100D6000204694E74146D1E7D0467BE7023B654405
:100D700032E7084609E76444023842E7704700BF9B
:100D8000844641EA000313F003036DD1403A41D396
:100D900051F8043B40F8043B51F8043B40F8043B55
:100DA00051F8043B40F8043B51F8043B40F8043B45
:100DB00051F8043B40F8043B51F8043B40F8043B35
:100DC00051F8043B40F8043B51F8043B40F8043B25
:100DD00051F8043B40F8043B51F8043B40F8043B15
:100DE00051F8043B40F8043B51F8043B40F8043B05
:100DF00051F8043B40F8043B51F8043B40F8043BF5
:100E000051F8043B40F8043B51F8043B40F8043BE4
:100E1000403ABDD2303211D351F8043B40F8043B84
:100E200051F8043B40F8043B51F8043B40F8043BC4
:100E300051F8043B40F8043B103AEDD20C3205D394
:100E400051F8043B40F8043B043AF9D2043208D08C
:100E5000D2071CBF11F8013B00F8013B01D30B88FE
:100E600003806046704700BF082A13D38B078DD0DC
:100E700010F003038AD0C3F10403D21ADB071CBFAE
:100E800011F8013B00F8013B80D331F8023B20F818
:100E9000023B7BE7043AD9D3013A11F8013B00F851
:100EA000013BF9D20B7803704B7843708B788370D9
:100EB00060467047000000000000000000000000D5
:100EC00090F800F06DE9024520F007016FF0000C8A
:100ED00010F0070491F820F040F049804FF0000432
:100EE0006FF00700D1E9002391F840F000F108000D
:100EF00082FA4CF2A4FA8CF283FA4CF3A2FA8CF345
:100F00004BBBD1E9022382FA4CF200F10800A4FAAB
:100F10008CF283FA4CF3A2FA8CF3E3B9D1E90423FF
:100F200082FA4CF200F10800A4FA8CF283FA4CF336
:100F3000A2FA8CF37BB9D1E9062301F1200182FAF0
:100F40004CF200F10800A4FA8CF283FA4CF3A2FAF6
:100F50008CF3002BC6D0002A04BF04301A4612BA04
:100F6000B2FA82F2FDE8024500EBD2007047D1E907
:100F7000002304F00305C4F100004FEAC50514F096
:100F8000040F91F840F00CFA05F562EA05021CBF67
:100F900063EA050362464FF00004A9E70000000081
:100FA00001F0FF01102A2BDB10F0070F08D010F81A
:100FB000013B013A8B422DD010F0070F42B3F6D11E
:100FC000F0B441EA012141EA014122F007047FF037
:100FD00000070023F0E80256083C85EA010586EA8E
:100FE000010685FA47F5A3FA87F586FA47F6A5FACA
:100FF00087F68EB9EED1F0BC01F0FF0102F00702D6
:1010000032B110F8013B013A83EA010313B1F8D180
:101010000020704701387047002D06BF3546033861
:10102000073815F0010F07D1013015F4807F02BF9A
:10103000013015F4C03F0130F0BC0138704700BFEB
:101040004FEA410C7FEA6C5C02D150EA013C0AD1C4
:101050004FEA430C7FEA6C5C02D152EA033C02D1B6
:101060004FF0000070474FF001007047002103E08F
:101070000B4B5B58435004310A480B4B42189A42C1
:10108000F6D30A4A02E0002342F8043B084B9A4296
:10109000F9D300F023F80AF0E5FC02F07DF9FEE751
:1010A000547D030800000020980A0020980A0020C0
:1010B000C0400020FEE70000064B0748E02283F80E
:1010C0002220C0210023C2180133252B82F80013EF
:1010D000F9D1704700ED00E000E100E00F4A08B5EB
:1010E000D2F8883043F47003C2F888304FF0804261
:1010F000D36843F08003D36002F50032536923F4D0
:10110000702343F48033536193689B07FCD5FFF74A
:10111000D3FFBDE8084001F0A5B800BF00ED00E036
:1011200070472DE9F84F99460D9B15469A07DDE962
:101130000B4706468B4622D02A460A9901EB040843
:101140001444A2421FD10D9B9B0705D5A2EB0508B5
:10115000474505EB08041FD82046BDE8F88F4B46ED
:1011600059462020B04708F10108B8450AEB0802AB
:10117000F5D33A1BBC4288BF00222A44DDE7A046D3
:10118000A5EB040AF1E702F1010A18F8010D4B463C
:101190005946B0475246D4E74B462246594620208E
:1011A000B04708F10108D3E72DE9F047DDE90D76F6
:1011B00016F0020FDDE90854DDE90BC89DF828E0C0
:1011C0001FD106F001094FB1B9F1000F06D0BEF1F1
:1011D000000F02D116F00C0F00D0013F4FF0300A83
:1011E00004E0202C04D005F804A00134A045F8D870
:1011F0004FF0300AB9F1000F03D0BC4201D21F2CCE
:1012000034D916F0100F1FD016F4806F33D194B379
:10121000444501D0BC422ED1B4F101082AD0BCF122
:10122000100F33D1023C16F0200F31D11F2C15D8EE
:101230004FF0780C05F804C001341F2C0ED84FF085
:10124000300C05F804C001341F2C07D8BEF1000F84
:1012500023D04FF02D0C05F804C00134CDE90A76F7
:10126000CDE90854BDE8F047FFF75BBF05F804A0DF
:101270000134BFE74446BCF1100FD4D0BCF1020FDB
:10128000DBD11F2CEAD84FF0620CD3E74446F5E7D8
:101290001F2CE3D84FF0580CCCE716F0040F02D007
:1012A0004FF02B0CD7E716F0080FD7D04FF0200CDB
:1012B000D1E72DE9F04391B0189D1A9E1D9F0DB9FD
:1012C00027F010077C0500D515B317F0200F14BFC9
:1012D0004FF0410E4FF0610EAC460DF12008002595
:1012E000AEF10A0EBCFBF6F906FB19C95FFA89F4E8
:1012F000B9F1090F94BF30347444E4B2B44508F82E
:10130000014BBCFBF6F405F1010501D3202D10D1F2
:101310001C9C05941B9C0697CDE903649DF86440D2
:10132000CDE9015408AC0094FFF73EFF11B0BDE8D1
:10133000F083A446D6E72DE9F04F2DED048B93B052
:10134000DDE92065289F9A4656EA050308BF27F085
:10135000100709EE102A7A05DDE924B908EE100A13
:1013600008EE901A02D556EA05033DD017F0200F7B
:1013700014BF412361230A3B0DF12808002409937F
:101380005A464B4630462946FFF778FBD2B2092A27
:101390008ABF099B3032D2185E45D2B275EB090381
:1013A00008F8012B04F1010401D3202C19D1279B4B
:1013B0000593269B0697CDE903B39DF88830CDE9C8
:1013C00001430AAB009319EE102A18EE901A18EE9A
:1013D000100A5346FFF7E8FE13B0BDEC048BBDE8DE
:1013E000F08F06460D46CBE70024E0E70000000042
:1013F0002DE9F04F2DED088B8DB01D46DDE920B3B2
:101400009DED1E7B0A93229B079208EE900AB0EE98
:10141000479AF0EE679A0C46069351EC170B53EC83
:10142000172BFFF7B1FA80B1CB4B51EC190B4FF0F2
:10143000FF32FFF7D1FA40B951EC190B4FF0FF32F0
:101440006FF48013FFF7AAFA90B1069B22930A9BD0
:10145000079A18EE900ACDE920B321462B468DED70
:101460001E9B0DB0BDEC088BBDE8F04F00F08CB9B1
:1014700051EC190B00220023FFF790FA002800F02E
:101480003F8119EE903A19EE108A03F10049069B4C
:101490009FEDB27A9FEDB28A13F480630B93C9F388
:1014A0000A53A3F2FF3307EE903AC9F31302F8EEA2
:1014B000E77A42F07F51AB4B4FF00002404641F4D7
:1014C000401108BF4FF0060BA7EE878AFEF73CFEDF
:1014D0009BA3D3E90023FEF7EFFF064618EE100AA0
:1014E0000F46FEF791FF02460B4630463946FEF79F
:1014F0002DFEFFF77BFA07EE900AB8EEE77ADFEDF4
:101500009A7AB6EE008AA7EE278A8246DFED977AAE
:10151000BDEEC88AF8EEC86A67EEE67ADFED946A37
:10152000E7EE267A17EE900AFEF76EFF02460B46AC
:1015300006460F46FEF7C0FF324641EC1A0B3B460B
:1015400030463946FEF702FE8A4B41EC1B0B002267
:1015500051EC1A0BFFF7DAF8874B0022FEF7F6FD85
:1015600002460B4651EC1A0BFFF7D0F8834B0022D2
:10157000FEF7ECFD02460B4651EC1A0BFFF7C6F8DE
:10158000324641EC1A0B3B4600204FF08041FEF7FB
:10159000DBFD02460B4651EC1A0BFEF7D7FD024667
:1015A0000B4651EC1B0BFFF7B1F8754B0022FEF711
:1015B000CDFD18EE103A03F2FF3633050022FEF798
:1015C0007BFF42464B4606460F46FFF705FA0028CA
:1015D00040F09980CDE908670AF16303C72B069BA9
:1015E00034BF04260526190523D557A3D3E90023C4
:1015F00040464946FFF7E6F9002800F08F8054A3E3
:10160000D3E9002340464946FFF7C8F9002800F017
:101610008580069BD345C8BFABEB0A0B43F48063C0
:101620004FF00006CCBF0BF1FF3B4FF0000B0693D1
:10163000B2460A9B9E4238BF9F1B069B28BF0027CD
:1016400013F002030B9302D0002E18BF0027BAF14B
:10165000000F07D040464946DDE90823FFF756F85A
:101660008046894651EC190B00220023FFF796F9BA
:1016700010B109F100439946069B079ACDF808B0CE
:1016800023F40063CDE90373CDE9008918EE900AD5
:101690002B46214600F078F86EB3069B13F0200F1E
:1016A00000F1010802462B4614BF45206520214663
:1016B00018EE907AB8470523059300220A238AEA98
:1016C000EA70CDE90232A0EBEA704FEADA73013E2C
:1016D000019300902B4618EE900A0496424621464C
:1016E000FFF7E7FD0B9B33B1079BC61A079B9819C1
:1016F0000A9BB3421BD80DB0BDEC088BBDE8F08F40
:1017000059EC198BC3E61C4B002230463946FEF7D4
:10171000FDFF0AF1FF3ACDE908015DE7BBF1000FDB
:1017200087D00B9B002B84D00BF1FF3B81E7024657
:1017300018EE907A2B4621462020B8470136D5E78F
:1017400000000060A787D23F000000E0E2361A3FA9
:101750000000000080842E41FFFFEF7F9B209A3E17
:101760004451343E0000F83F789A54401872313F9B
:101770008E5D134000002C40000024400000184003
:101780000000F03F000000002DE9F04F2DED088B28
:101790008FB0DDE920AB09EE103ADDE9225308EE07
:1017A000100A08EE902A0F46049352465B465046B4
:1017B0005946249EFFF7E8F8A0B9049B229303231F
:1017C0002193B94B2396209318EE902A19EE103AE4
:1017D00018EE100A39460FB0BDEC088BBDE8F04F8B
:1017E000FFF79FBC4FF0FF326FF48013504659460D
:1017F000FFF7D4F830B1049B22930423219323965E
:10180000AA4BE0E7AA4B4FF0FF3250465946FFF78C
:10181000E3F870B1A74A0499239606F00403002B5D
:1018200008BF0322A44B1CBF13460422CDE921218B
:10183000C9E799A3D3E9002350465946FFF7CCF8EE
:1018400038B997A3D3E9002350465946FFF7A6F8C5
:1018500098B1049B2496CDE9225318EE902A19EEF4
:10186000103A18EE100A3946CDE920AB0FB0BDECA6
:10187000088BBDE8F04FFFF7BBBD002200235046A8
:101880005946FFF78BF8002800F081805B465246EE
:1018900000200021FEF758FC012382468B46059369
:1018A00016F4806F08BF062506ABA5F12002A946F5
:1018B0003021B9F1090FA5EB090406D909F1FF3967
:1018C0004A4503F8011BF4D1202459465046FFF73E
:1018D0008DF87A4B03EBC90393ED007B0546B0EE20
:1018E00047AAF0EE67AAFEF77DFD02460B4650467A
:1018F0005946FEF729FC53EC1A2BFEF7DDFD024694
:101900000B4643EC1B2BFFF799F88046FEF75AFD78
:1019100002460B4651EC1B0BFEF716FC02460B462B
:1019200043EC1B2B664B0022FFF756F888B308F1F7
:1019300001084046FEF746FD02460B4651EC1A0BE5
:10194000FFF736F810B101354FF00008B9F1000F7C
:1019500050D12846FEF746FD02460B4650465946F2
:10196000FEF7F2FB564B002280468946FFF716F839
:1019700030B1534B002240464946FFF72DF810B1D5
:10198000E80700D5013506AB23440A2259E005904B
:1019900086E74B4B51EC1B0B0022FEF7FFFF0028A4
:1019A000D4D1B8F1000F02D018F0010FCED008F159
:1019B0000108CBE7B8FBF1F001FB10823032B8F13F
:1019C000090F03F8012B09F1FF3904F1010428D8AC
:1019D000A14406AA3021202C11D04C4504F101036A
:1019E00021D104F138020DEB02042E2204F8202C40
:1019F0001C46C8E706AB23440A21202CDAD106F0A6
:101A00000303012B06AB39D1049A002A36D0059A7C
:101A100012B916F00C0F02D0049A013A0492302247
:101A200014E08046E9E7A1541C46D4E795FBF2F1A7
:101A300002FB1155303503F8015B01340D460029D6
:101A4000DDD0202CF2D1DAE71A5501340499A142F5
:101A500014D9202CF8D1049A0093CDE9014219EE53
:101A6000103A18EE902A18EE100A03963946FFF73E
:101A700058FB0FB0BDEC088BBDE8F08F202CEAD0EE
:101A8000059AFAB104F138026A442D2102F8201CAB
:101A90000134E0E7AFF300800000000065CDCD41E8
:101AA0000000000065CDCDC10D6F0308116F030864
:101AB000FFFFEF7F086F0308046F03082845010844
:101AC0000000E03F710704D504F138026A442B217D
:101AD000DCE73207BFD504F138026A442021D5E79C
:101AE000014610B1014801F01DBB704700100140D4
:101AF0002DE9F04F91B09B46B74B1A9E00299046B6
:101B000014BF8146994600259BF8000058B9454509
:101B10002CBF08F1FF322A4643460020C84728461A
:101B200011B0BDE8F08F25280BF1010B06D02A4635
:101B30006C1C43460A91C8472546B2E1002306E0E3
:101B40002D2A14D0302A0CD143F001038346584685
:101B500010F8012B2B2A0DD0F2D8202A0DD0232AE1
:101B60000ED0A2F13004092C29D8002710E043F050
:101B70000203EBE743F00403E8E743F00803E5E77B
:101B800043F01003E2E70A2404FB0727303F8346B3
:101B9000584610F8012BA2F13004092CF3D99BF818
:101BA00000202E2A67D19BF80100A0F13004092CF7
:101BB0000BF1010243F4806353D8002411E02A2A78
:101BC00008D156F8047B002FBCBF43F002037F42CC
:101BD0008346E4E70027E2E70A2202FB0404303CE4
:101BE000624694461CF8010BA0F1300EBEF1090FBD
:101BF000F2D993465A4612F8010B6C2844D03CD8CF
:101C000068284AD06A2852D05A4693461BF8010BDE
:101C100078288CD857284DD8452805D087D946280C
:101C200000F02C81472882D100F0DF02472A04BF50
:101C300000F0FD0043F40063452808BF43F0200393
:101C4000CDE90373073626F007060294F6E802236F
:101C50004846CDE9002343462A460A91FFF7C8FBD0
:101C60001EE12A2806D156F8044B0BF1020B24EA98
:101C7000E474BFE793460024BCE7742801D07A28B7
:101C8000C2D143F48073C0E79BF801006C28F8D1FF
:101C900043F440730BF10202B7E79BF80100682898
:101CA00002D043F08003B0E743F0C003F2E743F40F
:101CB0000073AAE7A0F15802202A3FF638AF0FF2CE
:101CC000080C5CF822F000BF4D1D00082F1B000817
:101CD0002F1B00082F1B00082F1B00082F1B0008BC
:101CE0002F1B00082F1B00082F1B00082F1B0008AC
:101CF0004D1D0008A71E00084D1D0008291C0008E6
:101D0000811E0008291C00082F1B00084D1D00081B
:101D10002F1B00082F1B00082F1B00082F1B00087B
:101D20002F1B00084D1D0008FD1F00082F1B000879
:101D30002F1B0008271F00082F1B00084D1D00083F
:101D40002F1B00082F1B00084D1D0008782800F0ED
:101D50006B81582800F066816F2800F06781622847
:101D600000F06681692823F010034FF00A0203D0C7
:101D7000642801D023F00C0313F4806F18BF23F004
:101D80000103692803F4007C01D0642841D1BCF12F
:101D9000000F23D0073626F00706B24676685AF8B9
:101DA000080B0694CDE9077300230593F30F002E6B
:101DB00002930492034602DA434266EB4606CDE9FB
:101DC000003643462A4648460A91FFF7B4FA0A9974
:101DD0000546564698E600BF21110008D80506F1D1
:101DE000040A0CD53068CDE90224CDE9047300283B
:101DF0004FEAD0730193B8BF4042009027E013F040
:101E0000400F306801D0C0B2EDE71E0648BF00B2F7
:101E1000E9E7BCF1000F0ED0CDE907730023CDE94F
:101E20000423073626F0070A06940293FAE80223F1
:101E3000CDE90023C5E7D80506F1040A0ED5CDE9A2
:101E40000473CDE90224CDF804C0336800934346FF
:101E50002A4648460A91FFF72CFAB8E713F0400FDC
:101E6000306807D0C0B2CDE904730023CDE9022465
:101E70000193C2E71E0648BF80B2F4E743F0200397
:101E8000CDE90373073626F007060294F6E802232D
:101E90004846CDE9002343462A460A91FFF774FCE1
:101EA00005460A9930E613F0020426D04FF0010AE5
:101EB00056F8040B0B916B1C0A932A464346C0B29A
:101EC000C8470B996CB30A9A544620E00A914346DE
:101ED0002020C8470A990AEB05020AF1010A574572
:101EE000F4D8002F07F1FF3308BF002307F1010AE0
:101EF0001D4408BF4FF0020ADAE7A246EBE70B9158
:101F000043462020551CC8470B9901342A46BC4241
:101F1000F5D30A9AA7EB0A03574538BF00231A44A2
:101F20000A920A9DF0E5324652F8046B0A92414A41
:101F3000002E08BF1646002C14BF22464FF0FF3279
:101F40003244B4469CF8000008B1944511D113F412
:101F50008062ACEB060A0B9202D0A24528BFA246D3
:101F600013F002030C931DD1AAEB05032A460E932E
:101F70000AE00CF1010CE5E7531C0D930F91434669
:101F80002020C8470D9A0F990E9BD3189F42F3D873
:101F9000A7EB0A03574538BF00230AF101021D448D
:101FA00003EB020AAB1B0D9305E01C460E91434662
:101FB0002A46C8470E990D9B9D1916F8010B28B1AA
:101FC0000B9B002BF2D0631E002CEED10C9B9BB11F
:101FD0002A46AAEB050406E00B9143462020561C36
:101FE000C8470B9932461319BB42F5D3A7EB0A0336
:101FF000574538BF00231D440A9E85E543F0210361
:1020000005930823CDE9034310220023CDE90132D3
:1020100056F8043B00932A46434648460A91FFF788
:1020200048F93DE743F020031022A3E60822A1E689
:1020300002229FE6166F03080FB41FB506AA02A975
:1020400052F8043B0392009204484FF0FF32FFF72E
:102050004FFD05B05DF804EB04B07047E11A0008CD
:1020600070B501268C1906FA01F5E4B211448C42D0
:1020700008DB074A42EA8000026853402B40534085
:10208000036070BD06FA04F201341543E4B2EEE7D2
:102090000080004008B51120002304220621FFF72C
:1020A000DFFFBDE80840642000F000B9094B1A6862
:1020B00048B1D00706D51A68910703D41A6842F0D0
:1020C00004021A6070475207FCD51A6842F00802F1
:1020D000F7E700BF00700140084B1A6828B11AB931
:1020E0001A6842F001021A607047D107FCD51A68DD
:1020F0005207F9D41A6842F00202F4E70070014076
:10210000B0F5805F09D2054A536823F47F6323F05A
:102110000F035360536818435060704700700140CC
:10212000044B596821F4401159605A6810435860B3
:10213000704700BF00700140072892BF074A084A55
:10214000083810B580000F2303FA00F4136801FA71
:1021500000F023EA04031843106010BD087001402A
:102160000C700140034B5B6930EA03030CBF012094
:102170000020704700700140024BD869C0F30B008B
:10218000704700BF0070014010B5174CDFED175AC3
:10219000236B9FED176A9FED177AF7EE006AA8B9D7
:1021A000C3F3471307EE903AF8EEE77A636BE7EE76
:1021B000A56AC3F30813C1ED006A07EE903AF8EE82
:1021C000E77AA7EE867A82ED007A10BDC3F3473333
:1021D00007EE903AF8EEE77A636BE7EEA56AC3F391
:1021E0004833C1ED006AE8E7002000106F12033B9E
:1021F0006F12833A6F1283BE03680A7A10B544687F
:1022000024F0700422434C7A23F080030CB143F095
:10221000800303604B684260C3620B68836210BD39
:10222000036801290CBF43F0040323F00403036097
:102230007047036819B143F001030360704723F04E
:102240000103FAE7C36801290CBF43F0010323F03F
:102250000103C3607047036931EA03030CBF012027
:102260000020704708B5012000F090FB0C4B98420D
:1022700014D90C4A0133B0FBF3F313700A4A4FF43C
:102280007A73B0FBF3F04FF0E0230138E02158619E
:1022900082F8231000229A6107221A6108BD00BF4C
:1022A0003F420F00B40A002000ED00E030B50A4BB9
:1022B0004FF0E0211B784D695BB18C6958430023D6
:1022C0008A699442FCD0234498BF5B199B1A8342CD
:1022D00000D330BD1446F3E7B40A00204FF47A73FC
:1022E0005843FFF7E3BF0000144B15499A68D20426
:1022F00044BF4FF480529A60124B134A99619A611D
:102300001A6802F4007242F022021A6000229961F7
:102310009A614FF0FF320260084A9168C90405D5FE
:102320004FF4805393606FF0670070479A68D2074C
:10233000FCD501229A600020704700BF00F00040E9
:10234000BFAE9D8C00000240161514132D4B2DE9D5
:10235000F347154682189A4206460F464FD82A4B35
:1023600098424CD3294B2A4C9A68D00444BF4FF46E
:1023700080529A60274A284BA261A361236803F424
:10238000007343F0240323604FF00008A26125F09E
:10239000070905F00702C4F818804D4538BF4246CA
:1023A0004FF0FF3A49446846CDE900AAFEF7E8FC41
:1023B000164A4346381D4FF0010CAB4201D30020B2
:1023C00013E04B4535BFF9580099E160E16034BF37
:1023D000C1580199216143F806A09168C90407D545
:1023E0004FF4805393606FF0670002B0BDE8F08750
:1023F000A168C907FCD5C4F808C00833DDE74FF071
:10240000FF30F2E7FFFF03080080000800F0004003
:1024100000000240BFAE9D8C16151413012310B5A9
:102420008B40062A00F28280DFE802F0040F1B29AD
:102430003849630002681A43026082681A43826066
:10244000C26822EA0303C36038E002681A430260EC
:1024500082681A438260C2681A43C26002691343E9
:102460000BE002681A43026082681A438260C26805
:102470001A43C260026922EA030303611EE0026894
:1024800022EA03020260826822EA03028260426852
:1024900022EA03024260826913430EE0026822EAE4
:1024A00003020260826822EA03028260426822EA32
:1024B00003024260826922EA0303836110BD1F4C5C
:1024C000A0426FEA03020BD1072909D981691140A3
:1024D000816181680A40826002681A430260BDE738
:1024E00001681140016081680A40826042681A43B5
:1024F000D0E7124CA0426FEA03020AD1072908D99B
:1025000081691140816181681140816001680A40E0
:10251000E4E7016811400160816811408160416811
:102520000B43436083691A408261C7E702681A431C
:102530000260826822EA030281E700BF00FC0140DA
:1025400010B52B4C0123A04203FA01F346D1072911
:1025500044D98169194219D18168194216D101689B
:10256000194213D00169194210D072B9826922EA66
:1025700003028261826822EA03028260026822EA20
:102580000302026002691343036110BD18498869A0
:10259000184219D18868184216D10868184213D118
:1025A0000869184210D0002AEFD08A6922EA030293
:1025B0008A618A6822EA03028A600A681A430A600A
:1025C0000A6913430B61E0E709491AB10A6A134328
:1025D0000B62DAE7CA691343CB61D6E71AB1026A24
:1025E00013430362D1E7C2691343C361CDE700BF60
:1025F00000FC01404269012303FA01F1114214BFBA
:10260000184600207047C26A4900032303FA01F10B
:102610001140C162704770B50C461546FFF7F3FFD5
:10262000836A610003228A4023EA020305FA01F16A
:102630001943816270BDC26A0323490003FA01F1A4
:10264000114214BF0120002070470000072930B557
:1026500002D9164CA04220D0154CA04205D18C1FA7
:10266000E4B2012C1AD80631C9B2002B01F00304E0
:1026700014BF04230023002A43EA0403026C01F47C
:102680007F7114BF082500250F248C402B4322EABC
:10269000040203FA01F11143016430BDA1F10C05FC
:1026A000EDB2012D98BF2146DFE700BF00FC0140DD
:1026B00000F00140072910B511D90E4B0839984296
:1026C0000BBF01EB4101890007230F238B4002FA66
:1026D00001F1C26B22EA03031943C16310BD836B8E
:1026E00089000F248C4023EA040302FA01F1194304
:1026F0008163F3E700FC0140012302220370427072
:1027000083707047C36B012A0CBF23EA0101194390
:10271000C1637047202901D1436C7047022908BF6B
:10272000036C7047836B0B4214BF0120002070477D
:10273000836801290CBF43F00103002383607047C5
:10274000436801290CBF43F0010300234360704735
:10275000036843F001030360036B23F00703036383
:10276000026B4B781A430263426B22F0070242630A
:10277000426B13434363836C23F00F038364826CC7
:102780008B781A438264C26C22F00F02C264C26C5E
:102790001343C3647047000008B5094B98420DD13C
:1027A0000021322000F092F90121322000F066FC75
:1027B000BDE808400021322000F060BC08BD00BF29
:1027C0000020004009B9006A7047406A70470368FA
:1027D0001A06FCD54B783BB3C36843F40003C360CF
:1027E00003681B06FCD5C36823F46063C3600368F9
:1027F0001A06FCD5C2684B881343C36003681B06E6
:10280000FCD50B79A3B1C36843F48003C3600368AC
:102810001A06FCD54B797BB1C36843F40013C3603F
:1028200003681B06FCD57047C36823F40003D6E792
:10283000C36823F48003E9E7C36823F40013EEE7D9
:10284000C368012A0CBF194323EA0101C160036870
:102850001B06FCD57047036931B143F001030361E6
:102860000368DB05FCD5704723F00103F7E7036934
:10287000012A0CBF194323EA010101610368DB054A
:10288000FCD570478368012A0CBF194323EA010174
:1028900081607047436819434160704781610368F4
:1028A000DB06FCD57047036A31EA03030CBF012045
:1028B00000207047436A31EA03030CBF0120002067
:1028C00070470000274B1B6910B59C0706D1264AAC
:1028D000536823F4700343F480135360234A13694D
:1028E00043F004031361204B1A6881B122F02002E7
:1028F00002281A600ED81A6822F0030210431860EA
:1029000000292BD01A4B04225A6030BF10BD42F070
:102910002002EDE7174B1A6892060AD5164C174AA3
:102920009C619A611A6822F020021A6000229C6160
:102930009A61134A136B5C045CBF43F480431363D6
:10294000094B1A6842F003021A605A6803280CBF48
:1029500042F0807222F080725A60D1E740BF20BFFF
:1029600020BFD3E7002000100018004000ED00E079
:1029700000E100E000000240BFAE9D8C161514136C
:10298000008000400121FFF79DBF00004FF0804311
:1029900001461A6802F4E042B2F5A04F20D015D8E3
:1029A000B2F5805F1ED0B2F5005F1B4808BF4FF440
:1029B000004002291BD0032923D0012905D14FF063
:1029C00080431B68C3F30323D8407047B2F5C04F60
:1029D0000BD0114B1148B2F5E04F18BF1846E8E78D
:1029E0000F48E6E74FF4FA40E3E70E48E1E74FF01F
:1029F00080421368C3F30323D8401368C3F3421320
:102A0000E2E74FF080421368C3F30323D840136812
:102A1000C3F3C233D8E700BF00366E01006CDC029E
:102A20000048E80180EE36004FF08042136823F43E
:102A3000E0431843106070474FF08043DA6AD104D6
:102A400006D51A6922F010021A61DA6AD204FCD49F
:102A50004FF08043C1285A681FBF22F480625A6039
:102A60005A6822F0C0020BBF42F4806210435A60E1
:102A7000586070474FF08043DA6A910606D51A69AC
:102A800022F480721A61DA6A9206FCD44FF0804216
:102A9000936823F01C031843906070474FF0804305
:102AA000986800F4C03070474FF08043986800F495
:102AB000C04070474FF08043986800F4C0507047A2
:102AC0004FF08043986800F4C060704741284AD8AE
:102AD000DFE810F011020702FD01E401D201B901A3
:102AE000710167015D01530149013F0135010D018C
:102AF0000301D600EA00E000CC004900C200B800A3
:102B0000AE00A30099008F0085006B0061005700A4
:102B10004D004200170121012B01490049004900E5
:102B2000490049004900490049004900490049005D
:102B3000490049002E0225021B0238029501490076
:102B4000490049004900490049004900490049003D
:102B50004900490042024C024FF08043DA6819B143
:102B600042F48012DA60704722F48012FAE74FF0E4
:102B70008043DA6811B142F40022F3E722F4002224
:102B8000F0E74FF08043DA6811B142F48022E9E7C0
:102B900022F48022E6E74FF08043DA6811B142F474
:102BA0000032DFE722F40032DCE74FF08043DA68DE
:102BB00079B142F48032DA604FF080439A6A02F0D1
:102BC0003F023F2AFAD15A6931B142F004025A61F8
:102BD000704722F48032EEE722F00402F7E74FF06C
:102BE0008043DA6811B142F40042BBE722F40042AC
:102BF000B8E74FF08043DA6811B142F48042B1E7A0
:102C000022F48042AEE74FF08043DA6811B142F41B
:102C10000052A7E722F40052A4E74FF080431A695C
:102C200019B142F020021A61704722F02002FAE73F
:102C30004FF08043DA6811B142F4805292E722F4F7
:102C400080528FE74FF08043DA6811B142F400629E
:102C500088E722F4006285E74FF08043DA6811B11B
:102C600042F480627EE722F480627BE74FF080438B
:102C7000DA6811B142F4807274E722F4807271E76D
:102C80004FF08043DA6811B142F020026AE722F087
:102C9000200267E74FF08043DA6811B142F080020A
:102CA00060E722F080025DE74FF08043DA6871B19F
:102CB00042F04002DA604FF080439A6A02F03F022D
:102CC0003F2AFAD15A6929B142F008027FE722F07F
:102CD0004002EFE722F0080279E74FF08043DA681C
:102CE00011B142F010023DE722F010023AE74FF036
:102CF0008043DA6811B142F0007233E722F00072CB
:102D000030E74FF08043DA6811B142F0807229E772
:102D100022F0807226E74FF08043DA6811B142F466
:102D200000021FE722F400021CE74FF08043DA683C
:102D300011B142F4800215E722F4800212E74FF04D
:102D40008043DA6811B142F008020BE722F0080272
:102D500008E74FF08043DA6811B142F0040201E75E
:102D600022F00402FEE64FF08043DA6811B142F02F
:102D70000202F7E622F00202F4E64FF08043DA683E
:102D800011B142F00102EDE622F00102EAE64FF055
:102D90008043DA6811B142F00062E3E622F000629B
:102DA000E0E64FF08043DA6811B142F08062D9E684
:102DB00022F08062D6E64FF080431A6979B142F47E
:102DC00000721A619A6A02F03F023F2AFAD15A69E8
:102DD00042F010025A611A6942F0100223E722F011
:102DE00010021A619A6A02F03F023F2AFAD15A6928
:102DF00022F010025A611A6922F4007213E74FF0B0
:102E000080431A6979B142F480521A619A6A02F0D9
:102E10003F023F2AFAD15A6942F020025A611A69E8
:102E200042F40062FFE622F400621A619A6A02F03C
:102E30003F023F2AFAD15A6922F020025A611A69E8
:102E400022F48052EFE64FF080431A6971B142F0EC
:102E500008021A614FF080439A6A02F03F023F2A4B
:102E6000FAD15A6929B142F00102B0E622F0080213
:102E7000EFE722F00102AAE64FF080431A6931B170
:102E800042F004021A611A6942F04002CBE622F0D5
:102E900004021A611A6922F04002C4E64FF080432E
:102EA0001A6971B142F002021A614FF080439A6AC6
:102EB00002F03F023F2AFAD15A6929B142F00202D8
:102EC00085E622F00202EFE722F002027FE64FF0F1
:102ED0008043DA6811B142F0805243E622F080521A
:102EE00040E64FF080431A6911B142F001029AE6C0
:102EF00022F0010297E64FF080431A6911B142F0C7
:102F0000800290E622F080028DE64FF080431A693D
:102F100011B142F4807286E622F4807283E64FF0AB
:102F20008043DA6809B11A431CE622F0804219E6B0
:102F30004FF08043DA6811B142F0005212E622F0FD
:102F400000520FE64FF080431A6911B142F48062DB
:102F500069E622F4806266E64FF08043DA6811B1D8
:102F600042F40012FEE522F40012FBE54FF080432C
:102F7000DA6811B142F00042F4E522F00042F1E5D6
:102F800010B50C4605280ED8DFE800F003151F2801
:102F9000345F374A3749936934B123F02003936192
:102FA0008B685B07FCD510BD43F0200393618B68F1
:102FB0005C07FCD4F7E72E4A936819B123F4004369
:102FC0009360F0E743F40043FAE7294A936811B1AC
:102FD00023F4C043F4E743F4C043F1E7244A936980
:102FE00023F0180319B143F008039361DBE743F0C2
:102FF0001003FAE701210E20FFF768FD1E4BD3F8FE
:103000000421CCB190060BD4D3F8042142F0200265
:10301000C3F80421D3F8042122F08002C3F804216C
:10302000154BD3F8042142F00402C3F80421D3F86D
:1030300008219107FBD5B6E722F00402C3F804216A
:10304000D3F808219207FBD4ADE7094A09499369EF
:1030500034B123F0400393618B68002BFCDAA2E7C4
:1030600043F0400393618B68002BFCDB9BE700BFC0
:103070000080004000820040009000403F281ED8A1
:103080002F280DD90123303803FA00F04FF0804388
:10309000DA6911B91043D861704722EA0000FAE7F3
:1030A000A0F12003DBB2022B98BF0D20012303FA0D
:1030B00000F04FF080439A6911B91043986170474E
:1030C00022EA0000FAE74FF08042136B23F47F43BB
:1030D00043EA0020106370474FF08042136B23F0E7
:1030E000FF03184310637047BFF34F8F0449054B2C
:1030F000CA6802F4E0621343CB60BFF34F8FFEE770
:1031000000ED00E00400FA0530B1054BDA6A026018
:103110001B6B4360002070474FF0FF30704700BFCB
:103120000000024083699B06FCD401607047836BFA
:103130001AB923EA0101816370471943FBE74FF491
:10314000E1330360602383804FF04072002383717A
:10315000826003737047036B19B143F0010303638B
:10316000704723F00103FAE7036C0B4214BF012000
:10317000002070474164704738B5036B23F00103AA
:103180000363C36A23F01003C36200238363464BC7
:10319000984204460D463ED1FFF780FCC00B013833
:1031A000022850D8414B53F820002B68B0EB031F86
:1031B0004FEA031175D36BB1B0FBF1F201FB1200C2
:1031C000C000B0FBF3F000F0010303EB500080B24D
:1031D00040EA02431A0C03F03F036262A362E36A0F
:1031E0002A7923F060031343E362E36AAA7923F0A8
:1031F00008031343E3622B7B8BB3E36A43F01003B2
:10320000E3626B79012B2ED0022B42D09BBBE36A89
:1032100023F002032EE0B0F1402F04D1FFF744FC6D
:10322000C0F34F30BBE7224B984204D1FFF742FC7A
:10323000C0F3CF20B3E71F4B98420ED1FFF740FCFD
:10324000C0F34F20ABE7184B9C4202D0B4F1402FA3
:1032500003D10220FFF79AFBA7E70320FAE7E36A0E
:1032600023F01003CCE7E36A43F00203E362E36A6E
:1032700023F00403E362236B6A8923F4407313434E
:103280002363236B2A8923F44043134323630020E1
:1032900038BDE36A43F00203E362E36A43F00403E8
:1032A000E8E74FF0FF30F3E70030004078450108D1
:1032B0000000014000100140084B094AC3F8002CEF
:1032C000032218609A60074AC3F8002C4FF080422E
:1032D000536A43F010035362704700BF00E001409F
:1032E00051E5CC1AAE1A33E5044B054AC3F8002C5D
:1032F0000122DA60034AC3F8002C704700E0014065
:1033000051E5CC1AAE1A33E510B54FF4E040FFF7A3
:103310008BFB01211120FFF7D9FBFEF7A3FF012151
:103320000846FFF72DFE01210D20FFF7CFFB0121FD
:103330002020FFF7CBFB01212120FFF7C7FB012154
:103340002220FFF7C3FB01214120FFF7BFFB012132
:103350000020FFF7BBFB4FF0804401210E20FFF758
:10336000B5FB6420FEF7BAFF01F056F800F050FFFD
:1033700000F0D0FE00F0BEFE00F082FF00F0D4FFAF
:10338000A36923F48043A3616420FEF7A7FFA36928
:1033900043F48043A36110BD10B54FF08044FFF7A4
:1033A000B3FF616A226A2B4889B292B2FEF744FEEB
:1033B000236A590602D52848FEF73EFE236A9A067C
:1033C00002D52648FEF738FE4FF08044236ADB061C
:1033D00002D52348FEF730FE236A180702D521489C
:1033E000FEF72AFE4FF08044236A590702D51E4893
:1033F000FEF722FE236A9A0702D51C48FEF71CFE40
:103400004FF080431B6ADB0702D51948FEF714FE14
:10341000184808F02FFA08F061FA174803220C2127
:10342000FEF7FCFF012214480C21FFF789F803F096
:10343000F7FB00F0A1F802F075FF44F620110F48E9
:1034400000F07AF90A2003F09DFB00F0BBF90020A0
:1034500010BD00BF1D6F03083B6F0308486F0308D2
:10346000496F0308566F0308636F0308706F030802
:103470007D6F03084C40002000FC014084D501080A
:103480007047FEE7FEE7FEE7FEE7704770477047CC
:10349000704702F0FDBB0000054B04221A70054B7B
:1034A00001221A70044B4FF4E1605B6B184700BFB8
:1034B000BC0A002000000020B4460108054B05228C
:1034C0001A70054B01221A70044B4FF4E1605B6BDC
:1034D000184700BFBC0A002000000020B4460108C5
:1034E000054B02221A70054B01221A70044B4FF44F
:1034F000E1605B6B184700BFBC0A002000000020A1
:10350000B4460108054B03221A70054B01221A70BC
:10351000044B4FF4E1605B6B184700BFBC0A00200E
:1035200000000020B44601082DE9F0410E4FFB6A6F
:103530000C460646154698470C4B2246314618461F
:10354000FDF71EFC20F8025CA0F8084102F07AFFAB
:10355000074A01231370074A13704FF4E1607B6B35
:10356000BDE8F041184700BFB4460108221F002003
:10357000BC0A0020000000202DE9F04F3E4C3F4ED9
:103580003F4D8DB0201DFFF7BFFD3E4BE3603E4B2E
:1035900063613E4B23613E4BA3613E4BE36104F10B
:1035A0000C003368984795F82742F368D6E90689F6
:1035B00094B33948984739480024FEF73DFD01256A
:1035C00040F6B8334FF0020A4FF0080B0727CDE959
:1035D00007432246234615212846CDE90544CDE977
:1035E0000345CDE901AB0097C847CDE90845CDE9D2
:1035F0000644CDE90445CDE90244CDE9004B5346EC
:103600003A4621462846C047736B0B934FF4E1605E
:103610000DB0BDE8F04F1847297A214A214800FB38
:1036200001209847297A2048204DFEF705FD012703
:1036300040F6B833CDE90743CDE90544CDE903476A
:103640004FF0080ACDF808A02B790193EB7800938E
:10365000AB78224615213846C847CDE90847CDE961
:103660000644CDE90447CDE90244CDE9004A384695
:103670002B79EA78A978C6E7BC0A0020B44601088D
:103680000C1F00209934000829350008BD340008BB
:10369000E13400080535000880A1031C8E6F030883
:1036A0000026221C400D0300A16F0308F01E00201D
:1036B00013B50A4C236E9847094B1A7862B1002261
:1036C0001A70084B01221A70636B01934FF4E1608A
:1036D00002B0BDE81040184702B010BDB446010862
:1036E000BC0A00200000002070B50F4D002440F2FD
:1036F000F5162B78A1B27BB9FFF7DAFF0134012070
:10370000FEF7ECFDB442F4D1084B0948996A013147
:103710009962FEF791FC21460648FEF78DFC034BAB
:1037200000221A7070BD00BF00000020BC0A0020FB
:10373000B66F0308E66F030870B5214D05F5805498
:103740009023B1FBF3F189B2A4F82212C4F81C0251
:1037500040F2EE2003F096FFD4F81C0295F804190D
:103760004FF4906601F0010106FB015108F0BEF82C
:10377000D4F81C329033C4F81C32D4F81C0295F8EB
:103780000419013101F0010106FB015108F0AEF806
:10379000D4F81C329033C4F81C32B4F82232023B05
:1037A0009BB2A4F8223200F023FB4FF47A5000F0D1
:1037B0006FFA00F0F9FA022385F8073970BD00BFEF
:1037C000500B00202DE98048A54CA64DDFF8B482AF
:1037D0000023ABB02380238123822383238405F538
:1037E0008057238823B1352B06D00023238007E0A0
:1037F000FFF75EFF3523238098F80030002BF7D1C8
:10380000238923B14E2B28D0002323812BE0A36AE8
:103810006422B3FBF2F102FB11332BB902F0B6FEC6
:1038200002F008FFFFF760FD8F4AA36A92F8272293
:103830001AB31422B3FBF2F102FB11330A2B1AD88C
:1038400001228A480921FEF77BFEA36A0133A362A5
:1038500000F0AAFC4E23E060238100F0A5FCE368A1
:10386000C01A0928D3D8238A6BB17D2B00F0CF80F2
:1038700000232382D2E00022E3E795F80729002AFB
:10388000DED16422D6E77948794E0521FEF7B2FEF3
:10389000002840F0D4800A2003F074F9E36A013371
:1038A000642BE36227D9D6F80090B9F1000F22D13A
:1038B0007048FEF7C1FB41F228224946284608F02D
:1038C000ADFB00F095FA4FF4FA5000F0E1F940F248
:1038D000DC5003F0D7FE0DF10F0104A803F0B0FB9C
:1038E000CDF800909DF80F30308A04AA822102F0B2
:1038F00031FD00F037FA3368D4F83090002B55D002
:1039000097F81A3241F20A2A2B444FF0000B13F8B1
:103910000A308DF80FB0012B16D197F81A029021BA
:1039200001FB005000F6081003F04AFC01280BD1FF
:1039300097F81A322B4403F80AB097F81A32013379
:1039400003F00F0387F81A320DF10F0104A803F0FA
:10395000E9FBFF2820D145480521FEF74BFE012851
:103960001AD14FF0000ACDF800A09DF80F30308A30
:1039700004AA842102F0EEFC142251463C4808F0CF
:103980004DFB514641F22822284608F047FB3A48B1
:1039900044F6C061FFF7D0FE9DF80F3033B100222E
:1039A0000092308A04AA832102F0D4FC0A23B9FBD6
:1039B000F3F203FB1299B9F1000F20D10DF10F01C1
:1039C00004A88DF80F9003F025FC9DF80F3033B15B
:1039D000CDF80090308A04AA852102F0BBFC0DF1DD
:1039E0000F0104A803F032FC9DF80F303BB1002218
:1039F00022480092008A04AA852102F0ABFC236BC6
:103A00000133236300F0D0FB7D236061238200F04B
:103A1000CBFB6369C01A09283FF635AF238B002B17
:103A200061D08E2B61D000232383238C002B00F0E8
:103A3000F980DD2B00F0F88000232384D1E6E36ACF
:103A4000002B3FF458AF632B01D803F01BFA00237F
:103A5000E36203F0C1FE0A48FEF79EFE4BE700BF9B
:103A6000E80A0020500B00200C1F002000F001404D
:103A700070210020EE6F0308A41E020828260020F3
:103A800000200040881D002095F80739032B2AD11B
:103A9000774EB6F82222B6F8243292B29BB29A42FE
:103AA00080F09580D6F81C0295F80439A4F834907B
:103AB000013303F001034FF4906101FB035107F060
:103AC00025FFD6F81C324833C6F81C32B6F822322D
:103AD00001339BB2A6F82232B6F82232DB0602D1BD
:103AE000644BC6F81C328E23238395F805391BB925
:103AF00095F80639002B98D095F80539ABB300231B
:103B000085F805395A4E95F8043996F808225A482E
:103B10004821013303F0010301FB02524FF490618D
:103B200002F6081201FB035107F0C2FE96F80832B4
:103B3000DA0713D596F8083241F20A2205EB53034F
:103B40009B5C012B02D14D48FEF776FA96F80832BD
:103B500041F20A2205EB53030121995496F80832E9
:103B6000013303F01F0386F8083295F80639002B5D
:103B7000B9D04FF0000985F8069995F80739022B5E
:103B800082D13B4ED6F81C0295F80439013303F07C
:103B900001034FF4906101FB035107F0A7FED6F833
:103BA0001C329033C6F81C32B6F82232013B9BB26D
:103BB000A6F82232B6F822329BB2002B93D100F045
:103BC00017F903F009FE2E48FEF736FA8BE795F851
:103BD000040901304FF4906200F00100494602FBF5
:103BE000005008F01BFAA38E01339BB20A2BA38668
:103BF0007FF672AF2348036853B11823CDF80090C5
:103C00008DF81030008A012304AA852102F0A2FB5E
:103C100000F0EEF803F0E0FD1948FEF70DFA00237E
:103C2000A38659E7DD232384174E7378002B3FF4D6
:103C3000D8AD00237370B378552B14D1F378AA2B29
:103C400011D196F8201005290DD90239C9B2301DBD
:103C500002F066FA0D481E22002108F0DFF9002369
:103C600086F82030DEE7094802F092FAF2E700BF5A
:103C7000501B0020581400204C4000200270030804
:103C80001F70030828260020200B0020220B002094
:103C900013B504460020FEF7EDFE0420FFF713FAEB
:103CA00011232A48B0FBF4F0B0FBF3F0C0B2FFF7E9
:103CB00013FA01210D20FEF709FF01212020FEF754
:103CC00005FF01212120FEF701FF01212220FEF73F
:103CD000FDFE01214020FEF7F9FE01213220FEF712
:103CE000F5FE1B4805220121FEF7E4FC18480222DC
:103CF0000321FEF7DFFC022211461548FEF7DAFC2D
:103D0000134806220421FEF7D5FC012111480622A2
:103D1000FEF7D0FC104B01225A60402283F820238A
:103D200001A8FEF7E9FC0D4801A9FEF711FD0C4BB7
:103D30009A6A42F480429A629A6A42F400229A6233
:103D40009A6A42F480029A6202B010BD808D5B00D4
:103D500000F0014000F4014000E100E000200040DC
:103D60000010004013B50E4B93F8071901F0FF0245
:103D7000019299B9012421460A4883F80749FEF7C0
:103D8000DFFC019A07481021FEF7BCFC05482246DB
:103D9000214602B0BDE81040FEF7B4BC02B010BD31
:103DA000500B00200020004007B50F4B93F8071977
:103DB00001F0FF02019299B9022183F807190B481B
:103DC0000121FEF7B5FC019A08480121FEF79AFC93
:103DD00006480122102103B05DF804EBFEF792BC07
:103DE00003B05DF804FB00BF500B00200020004032
:103DF00008B50448FEF7D0FC034B002283F80729DE
:103E000008BD00BF00200040500B002070B5514D90
:103E100001212846FEF786FC002839D04E4C94F844
:103E20000739012BDEB240F0888094F8040994F839
:103E3000042902F5906234F812309BB2591C89B201
:103E400024F812104FF410712A6A01FB003312B2E9
:103E500024F8132031462846FEF7B4FC94F80439C0
:103E600003F5906334F813309BB2B3F5107F0FD194
:103E700094F80439013303F0010384F8043994F809
:103E8000043903F59063002224F8132084F80569AF
:103E900030480221FEF746FC18B12E480221FEF7F9
:103EA00039FC2C482021FEF73DFC18B1294820217F
:103EB000FEF730FC274C10212046FEF733FC00288B
:103EC0003AD0254B93F80729022A03D093F8072903
:103ED000032A3BD193F8044993F8041901F5906142
:103EE00033F8112092B2501C80B223F811004FF425
:103EF000107101FB0422174833F81220002112B27E
:103F00000262416293F8042902F5906233F81220AC
:103F100092B2B2F5107F0FD193F80429013202F06A
:103F2000010283F8042993F8042902F5906223F82A
:103F30001210012283F8062970BD00212846FEF7E1
:103F400041FC01212846FEF73DFCA1E70023236246
:103F50006362F1E700200040500B002010B5114CC7
:103F6000032220460F21FEF759FA204601220F2195
:103F7000FEF7E6FA01220E212046FEF7E1FA1020B4
:103F8000FEF794F900220F212046FEF7D9FA1020FF
:103F9000FEF78CF920460022BDE810400E21FEF706
:103FA000CFBA00BF00F0014010B5114C03222046EB
:103FB0000F21FEF733FA204600220E21FEF7C0FA49
:103FC00000220F212046FEF7BBFA1020FEF76EF903
:103FD000204601220E21FEF7B3FA204601220F21CE
:103FE000FEF7AEFABDE810401020FEF75FB900BF43
:103FF00000F0014038B5154801220F21FEF70EFAF6
:1040000001220F211148FEF79BFA1020FEF74EF90E
:104010000E4801220E21FEF793FA1020FEF746F912
:10402000FB250A480F21FEF7E5FA044628B90246A7
:104030000E210648FEF784FA06E0013D15F0FF0563
:10404000EFD1FFF7B1FF0124204638BD00F0014059
:1040500070B503220F2104461448144DFEF7DEF913
:10406000124800220E21FEF76BFA082623064CBFE9
:10407000012200220F212846FEF762FA0820FEF7EF
:1040800015F901220E212846FEF75AFA0820FEF7FC
:104090000DF900220E212846FEF752FA0820FEF7FD
:1040A00005F96400013EE4B2E0D170BD00F00140CA
:1040B00070B5044664000E461546FFF74FFF04F046
:1040C000FE00FFF7C5FFFFF795FF012803D1FFF7BB
:1040D0006BFF002070BD3046FFF7BAFFFFF78AFF85
:1040E0002846FFF7B5FFFFF785FFFFF75DFF0120CB
:1040F000F0E7000008B5064803220F21FEF78EF90D
:10410000BDE80840024803220E21FEF787B900BF30
:1041100000F001401FB501210820FEF7D7FC40F256
:10412000E7322F23CDE9002369464FF488730D4809
:10413000ADF80830FEF760F80A480121FEF770F884
:1041400008480121FEF77EF806480121FEF771F8C4
:10415000054B4FF000621A60402283F81B2305B024
:104160005DF804FB00C0004000E100E008B50B482A
:104170000121FEF770F880B1094A1368013313601A
:10418000084A13784BB10133DBB2052B83BF002300
:1041900013700123137088BF537008BD00C0004026
:1041A000B80A0020200B0020014B1868704700BFA0
:1041B000B80A002010B5144C10212046FEF7D4FF99
:1041C000B0B1124B206893F820104A1C1944D2B2A7
:1041D00088701D2A4FF0010183F82020197088BFD4
:1041E0000022094888BF83F820201021FEF7C2FF73
:1041F00005484021FEF7B8FF28B1BDE8104002484D
:104200004021FEF7B7BF10BD00100140200B002079
:104210001FB501211C20FEF759FC1548154C012241
:104220000D21FEF747FA01220C211148FEF742FA50
:104230006846FEF784FF104B009369462046FEF760
:104240009BFF204601221021FEF771FF012220462C
:104250004021FEF76CFF01212046FEF77CFF074B53
:1042600010221A60402283F8042304B010BD00BF5E
:1042700000F401400010014040420F0000E100E066
:1042800008B5164803220921FEF7C8F81348012291
:104290000921FEF755F9114801220521FEF7BEF864
:1042A0000E4802220521FEF7B6F900230B48012231
:1042B0000521FEF7CBF9094801220C21FEF7AEF8E3
:1042C000022206480C21FEF7A6F9054B4FF48002A6
:1042D0001A60402283F8162308BD00BF00F0014099
:1042E00000E100E010B50E480521FEF7A4F9012811
:1042F00006D10B480521FEF786F90A2002F042FCA0
:1043000007480C21FEF797F90128044606D1044816
:104310000C21FEF778F9034B83F8224010BD00BF53
:1043200000F00140200B002007B500210620FEF719
:10433000CDFB01210620FEF7A1FE00210620FEF79D
:104340009DFEC020FEF778FB01210620FEF7BEFB94
:1043500000234FF4606269461848ADF80030ADF8AC
:104360000430ADF80220FEF732FA0122114613485C
:10437000FEF788FA114801220221FEF783FA012292
:104380000E484FF00071FEF75BFA0C480121FEF772
:1043900062FA0A4847F6FF71FEF780FA07480122E1
:1043A0000421FEF764FA064B4FF000521A604022D7
:1043B00083F81D2303B05DF804FB00BF00D000406C
:1043C00000E100E010B512480121FEF773FA50B188
:1043D0000F480F4C0121FEF75DFA01212046FEF740
:1043E00062FA0028F9D00A480221FEF763FA70B198
:1043F0000748074C0221FEF74DFA02212046FEF73E
:1044000052FA0028F9D0034B012283F8232210BD71
:1044100000D000400C1F002008B501210420FEF749
:1044200055FB0220FEF7B2FA4FF4FA63B0FBF3F04B
:1044300042F210735843FEF73FFF024B04221A600A
:1044400008BD00BF00E100E02DE9F04F2DED028B2B
:10445000B5B06422002102A807F0E0FD642200212B
:104460001BA807F0DBFD01211220FEF72FFB012026
:10447000FDF732FE0120FDF719FE1BAD0DF1080A14
:1044800057462E4632240120FDF76CFE0028FAD054
:10449000FDF772FE27F8020B0120FDF763FE0028EE
:1044A000FAD0FDF769FE013C14F0FF0426F8020B78
:1044B000E9D12046FDF7FAFD2046FDF70DFE002666
:1044C0000027B046B9463AF8020BFBF78BFF0246CD
:1044D0000B4640464946FBF739FE804635F8020B4D
:1044E0008946FBF77FFF02460B4630463946FBF70D
:1044F0002DFE0134E4B2322C06460F46E3D1684B60
:10450000DFF8B8A1002240464946FCF7FFF8644BAB
:1045100080468946002230463946FCF7F7F80646C1
:104520000F46CDE900675F4842464B46FDF784FDE4
:104530000024D3463AF8020BFBF754FF32463B46C1
:10454000E5B2FCF72BFA18B90134292CF2D1254633
:1045500047A3D3E9002330463946FCF733FA524CDF
:1045600070B30023E38444A3D3E9002340464946C3
:10457000FCF732FA054600285CD06423A384A08CA3
:10458000FBF720FF494B0022FCF7C0F83CA3D3E91E
:104590000023FBF7DBFD0646E08C0F46FBF712FF1E
:1045A000434B0022FCF7B2F83246CDE900013B460E
:1045B0004048FDF741FD35B0BDEC028BBDE8F08F02
:1045C00031A3D3E9002330463946FCF7F1F910B1A5
:1045D0004FF4C873C6E705EB85004000FBF702FF08
:1045E0003BF815A041EC180B5046FBF7FBFE0246CA
:1045F0000B4630463946FBF7A7FD2D4B0022FBF753
:104600005BFF013D06463BF81500A0EB0A000F4694
:10461000FBF7E8FE02460B4630463946FCF776F8D3
:1046200002460B4651EC180BFBF78EFDFCF706FA21
:10463000E08498E716A3D3E9002340464946FCF7F7
:10464000ADF908B1A5849AE711A3D3E90023404648
:104650004946FBF779FD184B0022FBF72DFF0EA30F
:10466000D3E90023FCF752F8FCF7E8F9A08486E7C9
:104670000000000000FCAC400000000000B0A840BA
:104680000000004033330D400000000000207C405B
:10469000000000000018A5400000000000C07C40A1
:1046A0000000494030700308200B002000006940E2
:1046B000000024404670030800005940020000201A
:1046C00008B5134807220B21FDF7A8FE0722082191
:1046D0000F48FDF7A3FEFDF7DDFC1420FDF710FDEC
:1046E00001210020FDF728FD02210120FDF724FD16
:1046F0004FF48010FDF714FD0649002001F1280257
:104700002C31FDF741FDBDE80840FFF79DBE00BF1D
:1047100000F00140200B002038B5254C254D2046E7
:1047200000220121FDF7C6FF204600220421FDF7EB
:10473000C1FF204600220321FDF7BCFF20460022D6
:104740000221FDF7B7FF284600220121FDF7B2FF45
:10475000204602220121FDF761FE204602220421AB
:10476000FDF75CFE204602220321FDF757FE0222E0
:1047700011462046FDF752FE284602220121FDF790
:104780004DFE204600220E21FDF794FF2046002218
:104790000F21FDF78FFF204602220E21FDF73EFE7E
:1047A00020460222BDE838400F21FDF737BE00BF8A
:1047B00000F0014000F4014072B6704762B67047E5
:1047C000044B9860DA6802F01102012AFAD1986865
:1047D000C0B270470090004010B5134C4FF4007306
:1047E000C4F800310723236002232361D4F8043185
:1047F000802B0BD01420FDF759FD0023C4F80C3199
:104800001420FDF753FD0123C4F80C31064B074873
:1048100002225A60064B4FF400121A60BDE81040A5
:1048200003220B21FDF746BF0090004000FC014031
:1048300000E100E00520704710B5134CD4F80431B6
:1048400023F02003C4F804316420FDF72FFDD4F8D1
:10485000043143F02003C4F80431D4F8043123F0C8
:104860008003C4F80431D4F8003143F02003C4F8C5
:104870000031D4F8043143F00103C4F80431D4F812
:104880000831DB05FBD410BD0090004008B50A20BC
:10489000FDF70CFD024AD2F80831DB05FBD408BD58
:1048A0000090004038B572B6094C0025C4F80C5190
:1048B0001420FDF7FBFCC020FFF782FF2846FFF71E
:1048C0007FFF0123C4F80C31FFF7E0FF62B638BD6B
:1048D00000900040F8B50F4F154606460C4600F014
:1048E0000FF90023C7F80C313046FFF769FF254464
:1048F000AC4208D10123842EC7F80C3108D0BDE8A2
:10490000F840FFF7C3BF14F8010BFFF759FFEFE7BB
:10491000F8BD00BF0090004073B5104E01901546E1
:104920000C4600F0EDF800210198C6F80C11FFF7D5
:1049300047FF0846FFF744FF2544AC4207D1012357
:10494000C6F80C3102B0BDE87040FFF79FBF0020F1
:10495000FFF736FF04F8010BEFE700BF00900040BF
:10496000F8B5104F154606460C4600F0C9F800236E
:10497000C7F80C310D20FFF723FF300AFFF720FFA7
:10498000F0B2FFF71DFF2544AC4206D10123C7F862
:104990000C31BDE8F840FFF779BF14F8010BFFF7C1
:1049A0000FFFF1E70090004007B501228DF80710D6
:1049B0000DF10701FFF7D4FF03B05DF804FB000021
:1049C000F8B5124F154606460C4600F099F800213E
:1049D000C7F80C111D20FFF7F3FE300AFFF7F0FEB9
:1049E000F0B2FFF7EDFE0846FFF7EAFE2544AC42C1
:1049F00006D10123C7F80C31BDE8F840FFF746BFE8
:104A00000020FFF7DDFE04F8010BF0E70090004006
:104A100007B501220DF10701FFF7D2FF9DF807004E
:104A200003B05DF804FB0000F8B50F4F15460646CD
:104A30000C4600F065F80023C7F80C310E20FFF794
:104A4000BFFE3046FFF7BCFE2544AC4206D1012331
:104A5000C7F80C31BDE8F840FFF718BF14F8010B98
:104A6000FFF7AEFEF1E700BF00900040F8B5114F30
:104A7000154606460C4600F043F80021C7F80C1115
:104A80001E20FFF79DFE3046FFF79AFE0846FFF70F
:104A900097FE2544AC4206D10123C7F80C31BDE88E
:104AA000F840FFF7F3BE0020FFF78AFE04F8010B81
:104AB000F0E700BF00900040022100F031BA022070
:104AC00070470000024803220A21FDF7A7BC00BF7F
:104AD00000F00140024804220A21FDF79FBC00BFFC
:104AE00000F00140FDF7FABB014B1878704700BF9A
:104AF0007C1D0020014B1870704700BF7C1D0020FA
:104B000008B5074B1A7812B11B78062B03D1FFF7B3
:104B1000C9FEFFF7D7FFBDE80840FFF7B7BE00BFEB
:104B20007C1D00200A4601460020FFF77DBF08B526
:104B3000014608224FF4D860FFF712FF002008BD9D
:104B400007B5030A8DF80430064B8DF805005B7835
:104B50002BB9022201A940F2BC60FFF701FF03B0AC
:104B60005DF804FB7C1D002007B5030A8DF80430B6
:104B7000064B8DF805005B782BB9022201A940F2A3
:104B8000BE60FFF7EDFE03B05DF804FB7C1D002066
:104B900010B50C4B5B7804469BB94FF4D760FFF718
:104BA00037FFC4F3002100F0FE0001434FF4D7604B
:104BB000FFF7FAFEE1B240F2B960BDE81040FFF73E
:104BC000F3BE10BD7C1D002007B58DF80400FFF773
:104BD00081FF012201A98420FFF77CFE024B002205
:104BE0001A7003B05DF804FB7C1D002007B501229C
:104BF0008DF807000DF107018020FFF76BFE9DF88F
:104C00000720044B22B901221A7003B05DF804FB9F
:104C10000222F9E77C1D002007B5094B8DF806003C
:104C200004221A70030C8DF804300322030A01A930
:104C300083208DF80530FFF74DFE03B05DF804FBCF
:104C40007C1D002010B51446FFF76CFF2046BDE820
:104C50001040FFF7E1BF000007B5094B8DF80600D3
:104C600005221A70030C8DF804300322030A01A9EF
:104C700082208DF80530FFF72DFE03B05DF804FBB0
:104C80007C1D002013B50C4B04460522962140F6EE
:104C9000AC001A70FFF788FE230C8DF80430032255
:104CA000230A01A982208DF805308DF80640FFF710
:104CB00011FE02B010BD00BF7C1D002007B5030C23
:104CC0008DF80030030A8DF801300B0C8DF80200CE
:104CD0008DF803308DF805100B0A062269469420E2
:104CE0008DF80430FFF7F6FD024B06221A7003B070
:104CF0005DF804FB7C1D0020002208B51146C5208C
:104D0000FFF7E8FD014B07221A7008BD7C1D00204B
:104D100000221146D120FFF7DDBD07B501228DF835
:104D200007000DF107019F20FFF7D4FD03B05DF8E8
:104D300004FB07B501228DF807000DF10701A02043
:104D4000FFF7C8FD03B05DF804FB07B501228DF83D
:104D500007000DF107019620FFF7BCFD03B05DF8D9
:104D600004FB0000184B984207B50DD9E1238DF8DC
:104D70000430E9238DF80530022201A99820FFF7BD
:104D8000A9FD03B05DF804FB104B984204D9D7236A
:104D90008DF80430D823EDE70D4B984204D9C12398
:104DA0008DF80430C523E5E70A4B984204D97523F2
:104DB0008DF804308123DDE7074B9842DCD96B2363
:104DC0008DF804306F23D5E700E9A43580F8A932C7
:104DD0008044E52D000B6B1B40FC541907B58DF882
:104DE000062004228DF804008DF8051095200DEBA7
:104DF00002018DF80730FFF76DFD03B05DF804FB8D
:104E000013B5040A8DF801008DF80310080A8DF817
:104E10000520110A1A0A8DF8062008228DF80200D2
:104E20008DF80410104669468DF800408DF8073063
:104E3000FFF750FD02B010BD07B5022201A91220F4
:104E4000FFF76AFDBDF8040040BA80B203B05DF818
:104E500004FB07B501228DF807000DF107019D2025
:104E6000FFF738FD03B05DF804FB000008B5FFF75D
:104E7000B3FCFFF7E1FCFFF715FD0020FFF7B6FEDE
:104E80000120FFF7E6FF024B01221A7008BD00BFA8
:104E90007C1D00200000000037B5154DAB7804469E
:104EA0001BB9FFF75FFF0123AB702046FBF78AFABF
:104EB0000DA3D3E90023FBF729FCFBF7BFFD030E8D
:104EC0008DF804300422030C8DF805308DF80700AE
:104ED000030A0DEB020186208DF80630FFF7FAFC7D
:104EE00003B030BDAFF30080000000008084EE3FCF
:104EF0007C1D002007B5064B8DF807005870012275
:104F00000DF107018A20FFF7E5FC03B05DF804FB13
:104F10007C1D0020014B5878704700BF7C1D00208D
:104F200037B5044600200D46FFF7C9FD01280346AA
:104F300020D10F2C02464FF000010CBF06200420A8
:104F4000FFF74CFF6FF002008442B8BF04460E2CFE
:104F5000A8BF0E24182140F6E700FFF725FD022226
:104F600001A98E208DF804408DF80550FFF7B2FCA2
:104F700003B030BD40F6D800FFF74AFD40F01E00F8
:104F8000C1B240F6D800FFF70FFD134B1878022886
:104F900018D0032806D0012818D103460022052185
:104FA000032003E00221012300220846FFF716FF39
:104FB0006FF002008442B8BF0446162CA8BF162426
:104FC0003821C8E7012300220321EFE70123002253
:104FD00007210420EAE700BF781D00200000000040
:104FE00013B52F4A0446516810686B4603C32D4B16
:104FF00020785B78834201D0FFF77CFF23781BB1D8
:10500000012B37D002B010BD6068FBF7DBF9024618
:105010000B461FA1D1E90001FBF778FB0022224BD0
:10502000FBF74AFAFBF70AFD030C8DF80030030A80
:105030008DF80130237B8DF802008DF80330A068D5
:10504000637B8DF80430FBF7BDF913A3D3E900238C
:10505000FBF75CFBFBF7F2FC030C8DF80530030A51
:105060008DF806308DF80700082269468B20FFF77F
:1050700031FCC7E7237C8DF80030637C8DF801306C
:10508000A37C8DF80230E37C8DF803300422ECE73A
:105090000000000080847E41000000008084EE3F1C
:1050A000844501087C1D0020000040401FB5304AA7
:1050B0000446D1689068127C01AB03C31A702D4B73
:1050C00020785B78834201D0FFF714FF23781BB16F
:1050D000012B39D004B010BD637AF12B28D14FF6E3
:1050E000FF70FFF72DFD48F20500FFF73DFD02239D
:1050F00062888DF80520110A22798DF806206279E0
:105100008DF80720A2798DF80820E2798DF8092022
:105110008DF80B30227AA37A8DF80A208DF80410CE
:105120008DF80C30092201A98C20FFF7D3FBD1E7C1
:10513000F22BDDD141F60F50FFF702FD41F22100C5
:10514000FFF712FD0623D3E7A3898DF805301A0A6D
:10515000A37B8DF80630E37B8DF80730237C8DF838
:105160000830637C8DF804208DF809300622DAE7D8
:10517000844501087C1D002013B5049C8DF8033084
:10518000230C8DF800008DF801108DF802208DF8A9
:1051900004300522230A694688208DF805308DF8F1
:1051A0000640FFF797FB024B07221A7002B010BDB2
:1051B0007C1D002007B502228DF804008DF8051033
:1051C0008F2001A9FFF786FB03B05DF804FB07B54C
:1051D000012201A91520FFF79FFB9DF80400404222
:1051E000401003B05DF804FB37B504460D460222BB
:1051F00001A91320FFF790FB0C4B5B78012B11D119
:1052000040F20470FFF704FCC0F3C710012809D175
:1052100040F20270FFF7FCFB20709DF805302B7008
:1052200003B030BD9DF804302370F6E77C1D0020EC
:10523000F7B50D46064600240DF10701284617462E
:105240008DF80740FFF7D0FF2A78BA4207D89DF8BB
:1052500007003146FFF70AFC204603B0F0BD0120ED
:10526000FBE7000013B50322044601A91420FFF751
:1052700053FB1B494A7822704AB1012A17D01422E5
:105280000021204606F0CAFE0F2323700DE09DF892
:10529000043023719DF80530A2605B425B10A3715E
:1052A0009DF806305B425B10637102B010BD9DF843
:1052B00004309DF905205B425B1023739DF8053097
:1052C000002AB6BFA3F580739B089B1063739DF8FB
:1052D00006305B425B10A3734B682361E5E700BFB8
:1052E0007C1D002007B50222030A8DF8050001A9E4
:1052F00010468DF80430FFF7EDFA03B05DF804FBBB
:1053000000207047012070470020FFF76FBC0000AD
:1053100010B50D4C2060FFF7A9FD0020FFF766FCDB
:105320000120FFF712FD00210846FFF743FF04218B
:105330000020FFF7F5FD002318461A461946FFF72F
:105340005FFD0020207110BD841D002008B5FFF70F
:10535000CBFBC31EDBB2022B9ABFC0F10600C0B26A
:10536000002008BDFFF798BD08B5FFF730FF00B279
:1053700008BDFFF74DBBFFF717BB000038B50C4663
:10538000002340F201211A4605460846FFF738FD82
:10539000FFF7C0FD074B012807480CBFDC751C74E4
:1053A000FFF784FE214628460022BDE83840FFF77B
:1053B00049BC00BF841D00208C1D002008B50023BF
:1053C00018461A461946FFF71BFD4FF00400FFF779
:1053D000FBFBBDE808400220FFF784BBFFF76EBC73
:1053E00037B5144B93F840500F2805F10D05EDB279
:1053F0001AD807281AD803281AD8012894BF0024DD
:10540000012400234FF4C0711A460846FFF7F8FC48
:10541000002300930A2229462046FFF7ADFE03B081
:10542000BDE83040FFF768BC0424EAE70324E8E75E
:105430000224E6E7841D002010B50C46FFF72CFD82
:105440002046FFF739FBBDE81040FFF761BCFFF7CE
:1054500087BAFFF7B5BA08B5FFF7ECF9033008BD16
:1054600010B590B10A4B012219461C68A04206D320
:105470009C68A04203D201EBC202107910BD013238
:10548000162A03F10803F0D1FEE71F20F6E700BF5C
:105490009845010808B540F2422100231A46084603
:1054A000FFF7AEFC064B93F844202AB16FF07F4023
:1054B000BDE80840FFF7D0BB986C8001F8E700BF5B
:1054C000841D00200128084805D1084BC1751970BA
:1054D0000830FFF7EBBDC37B012B03D1034B0174F5
:1054E0001970F5E7704700BF841D002054000020AC
:1054F00008B5022100231A460846FFF781FC064B37
:1055000093F844202AB16FF07F40BDE80840FFF7D0
:10551000B9BB986C8001F8E7841D002037B54D4C6D
:105520002379002B00F09380FFF746F900232371C5
:10553000FFF744F9B4F84C30D90707D50120FFF73D
:10554000D9FA236813B11B6803B19847B4F84C30FB
:105550009A072FD594F8445095B90120FFF7CAFA5D
:10556000294640F60210FFF71FFA40F64410FFF7F5
:105570004FFA40F00200C1B240F64410FFF714FAAF
:10558000FF220DF107013448FFF752FE3348FFF7C1
:1055900069FE236873B19D6865B1B4F84C305B0651
:1055A00008D494F95D3194F95C219DF807102A48DC
:1055B0001A44A847B4F84C3058060AD594F8443039
:1055C00013B90120FFF796FA236813B11B6903B1E1
:1055D0009847B4F84C3019060BD50120FFF78AFA2A
:1055E000236833B19B6923B1B4F84C00C0F30020A9
:1055F0009847B4F84C309A050BD5FFF775FA042894
:1056000019D10120FFF776FA236813B15B6803B163
:105610009847B4F84C309B0619D594F8443013B928
:105620000120FFF767FA23688BB1DB687BB103B019
:10563000BDE830401847FFF757FA0528E9D10120A7
:10564000FFF758FA2368002BE3D0DB68DFE703B0ED
:1056500030BD00BF841D0020D21D0020D41E0020BC
:105660000E4B10B5044683F8640183F8650100F021
:1056700017F85CB134214FF4E860FFF795F9442145
:10568000BDE8104040F24170FFF78EB914214FF48D
:10569000E860FFF789F92421F2E700BF841D0020AC
:1056A00008B50120FFF726FC064B93F8640193F838
:1056B0006521824205D083F86501BDE80840FFF707
:1056C000CFBF08BD841D0020012808B507D00020E9
:1056D000FFF710FC044B002283F8652108BDBDE8EC
:1056E0000840FFF7DDBF00BF841D002037B5FFF77E
:1056F000D7FF0020FFF7B0FA002425460120FFF76E
:10570000F1F9FFF764FD00F00103A3400134202C00
:1057100045EA0305F2D100F0CBFA28440190FFF7E7
:105720004DFE019803B030BD0A2838B50DD8084B9E
:1057300003EBC000D0E92C4501208840FAF752FE67
:1057400022462B46FAF7E2FF38BD00240025F3E796
:1057500098450108000000002DE9F04F85B00E4685
:105760009DF84C1000919DF85C109DF84470BDF8B8
:105770004090754CDFF8ECA1BDF83C8084F84410F3
:10578000002918BF4FF00009002F15469DF848204A
:1057900008BFFF228AF80020834620B1012867D085
:1057A00005B0BDE8F08FFFF7B8FA0B23304684F858
:1057B0003C3084F830B06563FFF752FE41F60403D5
:1057C000A3819AF800302374009B84F83D00002BDD
:1057D00014BFF223012387F0010763744FEAC8085E
:1057E0000123A374E77384F808B0A4F80A8084F84E
:1057F0000EB0FFF789FD94F83000003818BF012083
:10580000FFF762FF04F13000FFF7EAFB04F1080044
:10581000FFF74CFC4D4AD2F80801D2F80C1102AB4C
:1058200003C302A8FFF783F940F2FF10FFF7B0F9B6
:105830002846FAF7C7FD02460B4600204449FAF70E
:1058400065FF444B0022FAF737FE064648460F46EE
:10585000FAF7C8FD02460B4630463946FAF72CFEE9
:105860003D4B0022FAF728FEFBF7E8F8A06497E723
:1058700000200193FFF751FA5FFA89F0FFF759FA18
:10588000324A019B84F830B032445FFA85F992F8CD
:10589000100184F8409084F8410084F842308EBBB7
:1058A0000B3D012D32D80123A9F10509994584F852
:1058B00043B0237238D8B8F10B0F35D80C23A3822C
:1058C0009AF80030E375009B23769DF85830637694
:1058D000A775FFF7E5FE2148FFF782FB2048FFF799
:1058E000E5FB637E012B40F2367020D1FFF790F884
:1058F00000F0FB0140F23670FFF756F84FF6FF73E9
:10590000A3644DE7012E01D10C2DCCD04946FFF701
:105910000BFF0BA3D3E90023FBF754F8B0F1000B06
:1059200018BF4FF0010BBEE7A4F81480C8E7FFF7DB
:105930006FF840F00400C1B2DCE700BFAFF30080B5
:10594000000000A047613040841D002098450108F8
:105950000000F03F0000204000408F40B41D0020B8
:105960008C1D0020540000202DE9F74F0C9EBDF83F
:1059700038709DF83C909DF840B05B4C8A4690464C
:10598000054648B1012847D040F68900FFF740F8A6
:1059900040F00400C1B284E00B2284F830001846C5
:1059A00084F83C206663FFF75BFD41F60403BBF11E
:1059B000000FA38114BFF22301236374FF000123AE
:1059C00089F00109A37484F83D00C4F83880257279
:1059D0006781A57384F80F90FFF796FC94F8300068
:1059E000003818BF0120FFF76FFE04F13000FFF709
:1059F000F7FA04F10800FFF759FB3C4AD2F8080116
:105A0000D2F80C116B4603C36846FFF790F840F2DA
:105A1000FF10FFF7BDF8B7E7344A9DF8341084F85B
:105A200030001A445FFA86F892F8100184F840803A
:105A300084F8410084F84210002B3FD10B3E012E28
:105A400040D80123A8F10508984584F843502372F3
:105A500044D80B2F42D80C23A382254B84F81690F0
:105A60001B78E3759DF84C30637684F818B0FFF727
:105A70004BFC94F83000003818BF0120FFF724FEDB
:105A80001C48FFF7ADFA1C48FFF710FB94F84130B3
:105A9000062B7FF479AF40F68900FEF7B9FF00F0DE
:105AA000FB0140F68900FEF77FFF5046FFF704F840
:105AB000149BC4F8683103B0BDE8F08F012B01D10D
:105AC0000C2EBED04146FFF72FFE05A3D3E90023DD
:105AD000FAF778FF051E18BF0125B2E7A782BCE7D9
:105AE000000000A047613040841D00209845010857
:105AF00054000020B41D00208C1D00200000000078
